:020000040800F2
:100000006815002029020008271E00086D1C000842
:10001000251E000883040008BD370008000000000A
:10002000000000000000000000000000A51F000804
:100030006307000800000000A31F0008B11F0008AC
:10004000430200084302000843020008430200087C
:10005000430200084302000843020008430200086C
:10006000430200084302000843020008430200085C
:10007000430200084302000843020008430200084C
:10008000430200084302000843020008430200083C
:10009000430200084302000843020008430200082C
:1000A000430200084302000843020008430200081C
:1000B000430200084302000843020008430200080C
:1000C00043020008430200084302000843020008FC
:1000D00043020008430200084302000843020008EC
:1000E00043020008430200084302000843020008DC
:1000F00043020008430200084302000843020008CC
:1001000043020008430200084302000843020008BB
:1001100043020008430200084302000843020008AB
:10012000430200084302000843020008430200089B
:10013000430200084302000843020008430200088B
:10014000430200084302000843020008291E000879
:10015000430200084302000843020008430200086B
:10016000430200084302000843020008430200085B
:100170004302000843020008430200080000000098
:10018000430200084302000800F002F800F03CF8C7
:100190000AA090E8000C82448344AAF10107DA45E2
:1001A00001D100F031F8AFF2090EBAE80F0013F0F8
:1001B000010F18BFFB1A43F0010318470438000071
:1001C00024380000103A24BF78C878C1FAD8520702
:1001D00024BF30C830C144BF04680C6070470000C1
:1001E0000023002400250026103A28BF78C1FBD840
:1001F000520728BF30C148BF0B6070471FB503F0DE
:10020000AFFB1FBD10B510BD00F001F91146FFF79F
:10021000F5FF03F025FB00F01FF903B4FFF7F2FF31
:1002200003BC00F027F9000009488047094800474F
:10023000FEE7FEE7FEE7FEE7FEE7FEE7FEE7FEE796
:10024000FEE7FEE704480549054A064B70470000F3
:100250004920000889010008680F00206815002067
:10026000681100206811002053EA020C00F0698038
:100270002DE9F04B4FF00006002B1FBFB3FA83F5BA
:1002800003FA05F424FA05F65E4012BF1643B2FAEB
:1002900082F502FA05F4C5F120051EBF22FA05FC1D
:1002A00044EA0C04203556EA044C4FEA144418BFC3
:1002B000641C4FF000084FF00009904271EB030CF2
:1002C00039D3002919BFB1FA81F701FA07F6B0FA5C
:1002D00080F700FA07F6C7F120071EBF20FA07FCD7
:1002E00046EA0C062037B6FBF4FCA7EB0507103FE7
:1002F00007F01F0BCBF120060CFA0BFB2CFA06F6CD
:1003000044BFB3460026202FA4BF5E464FF0000B2B
:100310005BEA060C08BF4FF0010B19EB0B09ABFBB6
:10032000027C48EB0608C01B06FB02CC0BFB03CC8F
:1003300071EB0C01C1E70B46024641464846BDE859
:10034000F08B13B54FF000004FF00001AFF30080C9
:10035000BDE81C40704710B5203AC0F00B80B1E8F2
:100360001850203AA0E81850B1E81850A0E81850EA
:10037000BFF4F5AF5FEA027C24BFB1E81850A0E8F3
:10038000185044BF18C918C0BDE810405FEA827C0D
:1003900024BF51F8043B40F8043B08BF7047D20724
:1003A00028BF31F8023B48BF11F8012B28BF20F8C5
:1003B000023B48BF00F8012B70474FF0000200B528
:1003C000134694469646203922BFA0E80C50A0E878
:1003D0000C50B1F12001BFF4F7AF090728BFA0E826
:1003E0000C5048BF0CC05DF804EB890028BF40F8F2
:1003F000042B08BF704748BF20F8022B11F0804F34
:1004000018BF00F8012B704770477047704775465A
:1004100000F02CF8AE4605006946534620F0070070
:10042000854618B020B5FFF70DFFBDE820404FF01E
:1004300000064FF000074FF000084FF0000B21F0CE
:100440000701AC46ACE8C009ACE8C009ACE8C0099B
:10045000ACE8C0098D46704710B50446AFF3008084
:100460002046BDE81040FFF7D8BE000000487047A6
:10047000040F002001491820ABBEFEE72600020051
:100480007047FEE710B5D0F8BC220446002A30D0F1
:1004900092F81834022B07D0032B05D0052B03D07C
:1004A000062B01D0092B13D1022082F81804002357
:1004B00082F8103482F8113482F8123482F813343E
:1004C00082F8140482F81534C2F80034C2F80434F7
:1004D0000848407DC00607D5204602F080FC204633
:1004E000BDE8104002F026BB4888BDE8104000F08F
:1004F00047BA10BDC40000200A46D0F8BC1200293B
:100500002BD0D388002B91F8183410D0022B01D0B7
:10051000052B10D15388C1F80034D2880323C1F8C9
:10052000042481F8183481F8143401F0B8BD052B87
:1005300004D0022B02D0114601F0A6BD012081F8A3
:100540001904062281F81824002081F8110481F88A
:10055000120481F8130481F81424704770B505461D
:10056000D5E9AF40002C51D094F818240021032A7B
:1005700002D0062A42D125E0D4F8042402B3042292
:1005800084F8182484F8111484F8121484F81314CD
:1005900084F81424D4F8001411B92178412908D022
:1005A000D4F80834866904F5826201211846B04700
:1005B00024E0D4F8083404F5826200218669F5E766
:1005C000052011E094F81904012801D038B115E094
:1005D000072084F81804012284F8112408E00C484C
:1005E000007D40070AD5022084F8180484F811140D
:1005F00084F8121484F8131484F8140404F5826146
:100600002846BDE87040062201F063BD70BD0000C1
:10061000C400002010B5D0F8BC12002911D0164B30
:10062000002281F819241B7D5B070BD5062081F879
:10063000180481F8112481F8122481F8132481F818
:10064000140410BD082381F8183481F8112481F8AE
:10065000122481F8132481F8143402F0C0FBBFF394
:100660004F8F06480168064A01F4E06111430160BA
:10067000BFF34F8F00BFFDE7C40000200CED00E08A
:100680000400FA0570B505460B46D5E9AF46002CC7
:1006900066D0D988002099B394F81814022906D09E
:1006A000092904D0C4F80404C4F8000447E05988B8
:1006B000C4F80014DA88C4F80424E9B1012933D954
:1006C000092384F8183484F8110484F8120484F897
:1006D000130484F814348802D4F80814A0F50060D8
:1006E0000844736921469847D4F8042401462846F3
:1006F000BDE8704001F0EDBC032A02D9022101E0FF
:1007000023E0092184F8181484F8110484F81204F1
:1007100084F8130484F814142070212060704120A0
:10072000A07003222146E2E70F2184F8181484F810
:10073000110484F8120484F8130484F8141428466D
:10074000BDE87040194601F09FBC022184F81814DE
:1007500084F8110484F8120484F8130484F814143F
:1007600070BD704772B6FEE7002229B101291AD088
:1007700002291BD04FF440720E490B6823F44073DA
:100780000B600B6813430B600A6822F0F8020A60E2
:100790000A68022303EBC00002430A60086840F4C1
:1007A0008030086070474FF48072E5E74FF40072C4
:1007B000E2E70000103C02401348016889050FD5AC
:1007C000016821F400710160016841F40061016079
:1007D000016821F400610160016841F40071016069
:1007E000016849050FD5016821F480610160016845
:1007F00041F480510160016821F480510160016879
:1008000041F4806101607047003C024008490A6879
:1008100022F440720A600A6842F004020A600A6820
:100820004FF4803343EA002002430A60704700001F
:10083000103C0240064A136823F4407313601368A7
:100840001360136843F001031360017070470000E8
:10085000103C0240094910B50C6824F440740C6047
:100860000C6844F440740C600C6844F001040C60A3
:100870000260BFF36F8F436010BD0000103C024068
:10088000074A136823F440731360136843F48073BA
:100890001360136843F00103136001807047000088
:1008A000103C0240074A136823F440731360136836
:1008B00043F400731360136843F001031360016095
:1008C00070470000103C024017490868C2061748EC
:1008D00005D5C26942F01002C26110220A600A689E
:1008E000920605D5C26942F00802C26120220A6060
:1008F0000A68520605D5C26942F00402C26140226C
:100900000A600A68120605D5C26942F00202C26195
:1009100080220A600A68920705D5C26942F0200267
:10092000C2610220086070470C3C0240E40D0020C8
:1009300070B5114904460020C86100F0D1F906469F
:100940000E4D09E0601C07D024B100F0C9F9801BEE
:10095000A04201D9032070BD2868C003F2D42868E2
:10096000C00701D001202860286810F0F200F2D002
:10097000FFF7AAFF012070BDE40D00200C3C0240EF
:1009800080B202F033BF00002DE9F0470446224850
:100990000F46017E01290AD00121804601764CF2E2
:1009A00050394846FFF7C4FF020003D02FE0022071
:1009B000BDE8F0874FF0FF3038602068174D012800
:1009C00001D0A6681CE0207C6168FFF71FFF484645
:1009D000FFF7AEFF0246286820F00400286014E00C
:1009E000217C3046FFF7C0FE4846FFF7A1FF02001A
:1009F000286820F0FA00286001D03E6005E0761CEF
:100A0000D4E902100844B042EAD8FFF7D5FE00212D
:100A100088F818101046CBE7E40D0020103C024087
:100A20000348016841F00041016000207047000068
:100A3000103C02402DE9F0471B4E05461446307E1F
:100A40001F468946012808D0012030764CF25038E4
:100A50004046FFF76DFF18B114E00220BDE8F087B3
:100A60009DB1012D16D0022D19D022463B46484695
:100A7000FFF7F0FE4046FFF75BFF0C490A6822F0E3
:100A800001020A6000213176E8E7E1B24846FFF74B
:100A9000D1FEEFE7A1B24846FFF7F2FEEAE72146B2
:100AA0004846FFF7FFFEE5E7E40D0020103C02405A
:100AB000074900200A68002A09DA054A054B0C3A62
:100AC0001360054B13600968002900DA01207047A4
:100AD000103C024023016745AB89EFCD2DE9F84F6B
:100AE000DFF8BCA1002201250AF1040B03264FF018
:100AF0000F090BF1040E00BF0B6805FA02F4234046
:100B0000A34270D10F7907F00307012F01D0022F04
:100B100016D187684FEA420806FA08FC27EA0C0754
:100B2000D1F80CC00CFA08FC4CEA070CC0F808C05D
:100B30004768A7430C79C4F3001494403C434460D5
:100B40000C79E443A4070AD0C4684FEA420C06FAC1
:100B50000CF7BC438F6807FA0CF72743C7600C7982
:100B600004F00304022C12D1D40800EB840CDCF84E
:100B700020405707FF0E09FA07F824EA0804D1F8C5
:100B8000108008FA07F848EA0408CCF820800468C6
:100B90004FEA420C06FA0CF7BC430F7907F0030743
:100BA00007FA0CF7274307604C6814F4403F70D0F5
:100BB0003C4C276847F480472760246822F00307ED
:100BC00004F480440094384C07EB040CDCF808482B
:100BD00097074FEA177809FA08F7BC43334FB84232
:100BE00002D1002724E054E0314FB84201D101275F
:100BF0001EE0304FB84201D1022719E02E4FB84213
:100C000001D1032714E02D4FB84201D104270FE092
:100C10002B4FB84201D105270AE02A4FB84201D133
:100C2000062705E0284FB84201D1072700E0082732
:100C300007FA08F72743CCF80878DAF80040574657
:100C4000D1F804C09C435FEACC3C00D51C433C6017
:100C5000DBF800405F46D1F804C09C435FEA8C3C5F
:100C600000D51C433C60DEF800407746D1F804C054
:100C70009C435FEACC2C00D51C433C60084F0C37EA
:100C80003C68D1F804C09C435FEA8C2C00D51C431F
:100C90003C60521C102AFFF42FAFBDE8F88F000013
:100CA000003C014044380240003001400000024056
:100CB0000004024000080240000C02400010024004
:100CC0000014024000180240001C02400069084065
:100CD00000D0012070470AB1816170470904FBE729
:100CE0000148806870470000740000200248816855
:100CF0000278114481607047740000200B4810B5E1
:100D0000016841F400710160016841F48061016093
:100D1000016841F480710160032000F06FF80F203A
:100D200000F006F800F024F8002010BD003C02405E
:100D300070B50D4D04464FF47A712878B1FBF0F090
:100D40000A490968B1FBF0F000F07CFF48B9102CAB
:100D500007D200222146501E00F030F800206C60BF
:100D600070BD012070BD00007400002080000020D4
:100D70000A4808B5016841F480410160006800F448
:100D8000804000900548001F016841F080510160DB
:100D9000006800F08050009008BD00004438024018
:100DA000002809DB00F01F0201219140400980006A
:100DB00000F1E020C0F8001170470000F0B40E4BC5
:100DC0001B680C46C3F30223C3F10705042D00D9A9
:100DD0000425191D072901D2002300E0DB1E01268E
:100DE00006FA05F1491E214099409E40761E1640A4
:100DF0003143F0BC02F0E3BC0CED00E0064900F02A
:100E0000070208684FF6FF03184040EA0220034A31
:100E100010430860704700000CED00E00000FA0588
:100E200070470068416200207047F0B50368586A57
:100E300039B19C6A4FF4827600EB144400204D1EB9
:100E40000AE040EA024098620FE006EB8007DF59B3
:100E5000401C04EB1744C0B2A842F6D344EA024057
:100E60004FF4807202EB810158500020F0BDD0F8A1
:100E7000040401F09BBCC1EBC10200EB8202D0F87C
:100E80000404926C01F008BCC1EBC10200EB8202C9
:100E9000D0F80404D2F8082201F052BCD0F80404BF
:100EA00001F086BC70B5044601F00F006268904204
:100EB00001D9012070BD0B0601F00F01C1EBC1018A
:100EC00004EB81014FF001024FF0000503D581F8DA
:100ED0003D203C3103E081F8FD5101F5FE718D703C
:100EE000087094F8BC03012808D084F8BC2320685B
:100EF00002F0C4F984F8BC53002070BD022070BD1C
:100F00002DE9F04104460F0601F00F00C0EBC001CF
:100F100004EB81014FF001064FF0000503D581F885
:100F20003D603C3103E081F8FD5101F5FE71087030
:100F30008A60CB704A7802B1C880022B00D10D7153
:100F400094F8BC03012809D084F8BC63206801F040
:100F500059FF284684F8BC53BDE8F0810220FBE726
:100F600070B50C4601F00F05C5EBC50100EB810122
:100F7000C1F81032C1F808220023C1F8143281F8F8
:100F8000FD3181F8FC51036901F5FE71012B00D19F
:100F90000A612207027C006803D002F0C7F9002032
:100FA00070BD02F0B3F8FAE770B504460D4601F0E3
:100FB0000F006168884201D9012070BD29064FF0F9
:100FC00000064FF0010207D5C0EBC00104EB810120
:100FD00081F83D203C3107E0C5EBC50104EB810100
:100FE00081F8FD6101F5FE718A70087094F8BC0308
:100FF000012807D084F8BC23206802F06BF9280789
:1010000002D007E0022070BD217C04F571722068D7
:1010100002F008F984F8BC63002070BD70B50C467E
:1010200001F00F05C5EBC50100EB81010B658A647A
:1010300000234B65012381F83D3001F83C5F0369D3
:10104000012B00D10A612207027C006803D002F064
:101050006DF9002070BD02F059F8FAE72DE9FC5F48
:1010600005680446284602F092FA00287ED12068DE
:1010700002F0B9FA002879D0206802F0B4FA8007AB
:1010800004D52168486900F002004861206802F038
:10109000AAFAC10604F57170009034D52068816900
:1010A00021F0100181612F6A07F00F00C0EBC00032
:1010B00004EB8006C7F3434006F5FE76022802D013
:1010C000062811D01AE047F6F070074216D0C7F391
:1010D0000A1217462846F16802F089FAF068384487
:1010E000F060B069384408E008222846009902F010
:1010F0007EFAB069C7F30A110844B06120688169BB
:1011000041F010018161206802F06DFA00034FF098
:10111000010A4FF0080B5BD50026206802F042FA66
:101120000746DFF8689351E0F8074DD0F1B2206828
:1011300002F051FA8046C00707D005EB4611C1F80E
:1011400008AB3146204600F075FE5FEA087022D5F4
:1011500005EB4611C1F808BB2068016C00EB461096
:101160000191D0F8082B494507D900E08BE1110423
:1011700003D54FF40041C0F8081B204600F076FA72
:101180000198484507D92069012804D12068012128
:10119000009A02F047F85FEAC86004D505EB4611F3
:1011A0001020C1F8080B5FEA886004D505EB4611F2
:1011B0002020C1F8080B5FEA884005D505EB4610F2
:1011C0004FF40051C0F8081B7F08761C002FABD1EC
:1011D000206802F008FA40034FF000095CD520684F
:1011E00002F0D9F90746002654E0F80750D0F1B2D2
:1011F000206802F0DEF98046C00723D006F00F0217
:101200000AFA02F0D5F834288243C5F8342805EBF1
:101210004610C0F808A9206901280FD1C6EBC60006
:1012200004EB8000D0E911211144816436B9206DAE
:1012300020B920680121009A01F0F4FFF1B22046A4
:10124000FFF719FE5FEA087003D505EB4611C1F8F8
:1012500008B95FEAC86004D505EB46111020C1F853
:1012600008095FEA486004D505EB46114020C1F843
:1012700008095FEA887004D505EB46110220C1F821
:1012800008095FEA086003D53146204600F038FEC1
:101290007F08761C002FA8D1206802F0A4F900284E
:1012A00011DAD5F8040820F00100C5F8040894F814
:1012B000F403012829D0204600F0BCF920684169D8
:1012C00001F000414161206802F08DF900050BD565
:1012D000D5F80808C00702D0204600F015FA2068AB
:1012E000416901F400614161206802F07CF9C004A9
:1012F00068D5D5F8040820F00100C5F804081021CD
:10130000206802F021F9002127E084F8F4930021FD
:101310002046FFF785FDD1E705EB41104FF67F3200
:10132000C0F80829D0F8003923F40013C0F80039B8
:10133000D0F8003943F00063C0F80039C0F8082B3A
:10134000D0F8002B22F40012C0F8002BD0F8002BAC
:1013500042F00062C0F8002B491C60688842DBD86C
:10136000D5F81C0840F00110C5F81C08206B60B1CE
:10137000D5F8840840F00B00C5F88408D5F8440877
:1013800040F00B00C5F844080CE0D5F8141842F200
:101390002B000143C5F81418D5F8100840F00B00D5
:1013A000C5F81008D5F8000820F4FE60C5F800085C
:1013B000217C2068009A01F035FF2068416901F422
:1013C00080514161206802F00EF9800415D5206833
:1013D00001F058FD206802F0CDF8E06000F046FA18
:1013E0000146227B206802F061F9204600F00CF9EA
:1013F0002068416901F400514161206802F0F3F86E
:10140000000707D5204600F019F92068416901F06E
:1014100008014161206802F0E6F8C00208D5002109
:10142000204600F035F82068416901F480114161DF
:10143000206802F0D8F8800208D50021204600F08C
:101440002BF82068416901F400114161206802F025
:10145000CAF8400007D52046FFF709FD206841691A
:1014600001F080414161206802F0BDF840070AD5D3
:1014700020684568680702D52046FFF70FFD206801
:10148000416829434160BDE8FC9F00000A30544F89
:10149000D0F8040401F0D8B9D0F8040401F0E4B99C
:1014A0002DE9F0418AB0040005D094F8BD03266808
:1014B000002520B108E001200AB0BDE8F08184F8E1
:1014C000BC53204600F05EF8032084F8BD03F06BA7
:1014D000C00500D42561206801F012FE04F110015E
:1014E000282288466846FEF736FF94E80F0001F090
:1014F000D7FC0226C8BB0021206802F097F8002024
:1015000001270EE0C0EBC00104EB810181F83D70C2
:1015100001F83C0FC880CD708D60CD60401CC0B21A
:101520004D6161688142EDD8002011E0C0EBC0013F
:1015300004EB810181F8FD5181F8FC0181F8FF5134
:10154000C1F80452C1F80852401CC0B2C1F8105290
:1015500061688142EAD8282241466846FEF7FBFED0
:1015600094E80F0001F012FD10B184F8BD63A2E70A
:1015700084F8385084F8BD73206801F0F9FC00202D
:101580009AE7000010B586B0044614216846FEF7BD
:1015900014FF2068B0F1A04F2FD119480021026834
:1015A00042F001020260006800F0010005904FF473
:1015B000C05000900220CDE90101032003900A20D1
:1015C000049069460F48FFF789FA0D48001D01682D
:1015D00041F0800101600A481430016841F4804103
:1015E00001600068002200F480400590114643200D
:1015F000FFF7E4FB4320FFF7D3FB06B010BD00006C
:10160000303802400000024070B50446C068012531
:1016100070B1022801D0FFF7A5F82946D4F80404D8
:1016200001F08EF9D4F80404BDE8704001F041B92E
:101630000025F2E7D0F8040401F068B9D0F80404FA
:1016400001F06EB910B5044690F8BC0301280BD028
:10165000012084F8BC0384F83810206802F014F8E4
:10166000002084F8BC0310BD022010BDD0F8042473
:1016700000F57171104601F06FB910B504460068AD
:1016800094F8BC13012906D0012184F8BC13A16A87
:10169000012902D008E0022010BDA169012903D070
:1016A000816B41F480318163206801F033FF206851
:1016B00001F050FC002084F8BC0310BD70B5044656
:1016C000006894F8BC13054601290FD0012184F865
:1016D000BC1301F015FD206801F04AFC10212068C0
:1016E00001F032FFA06A012802D008E0022070BD9C
:1016F000A069012803D0A86B20F48030A8630020E3
:1017000084F8BC0370BD000010B50446D0F8040492
:1017100001F06DF92068D0F8001E41F00101C0F819
:10172000001E206A002804D00248016841F006012A
:10173000016010BD10ED00E02DE9F0470E460500F8
:1017400065D0DFF81481D8F80000F7B200F0070088
:10175000B04207D288F80070D8F8000000F0070007
:10176000B04254D128683D4C810712D5400703D5BB
:10177000206840F4E05020602878000703D52068F6
:1017800040F4604020602068A96820F0F000084321
:1017900020602878C0072DD03049686808390128B2
:1017A00012D0022813D0032811D009688907002914
:1017B0002DDA216821F0030101432160FFF790FA3F
:1017C000814641F2883A0EE009688903EFE709682B
:1017D0008901ECE7FFF784FAA0EB0901514502D932
:1017E0000320BDE8F0872068696800F00C00B0EBCA
:1017F000810FEFD1D8F80010404601F00701B14247
:1018000007D90770006800F00700B04201D001203E
:10181000E7E72878400705D52068E96820F4E0501C
:10182000084320602878000706D52068296920F43D
:10183000604040EAC100206000F01EF82168084ABC
:10184000C1F30311515CC8400649086006480068AE
:10185000FFF76EFA0020C4E7003C0240083802405F
:101860006A390008800000207800002001480068E4
:101870007047000080000020154810B5006810F087
:101880000C02144813D04110042A0FD0082A0ED19C
:101890000F4C241F2268236802F03F025B0207D529
:1018A0002068C0F38810A0FB010106E0084610BDC7
:1018B0002168C1F38811A1FB00010023FEF7D4FCCD
:1018C0002168C1F30141491C4900B0FBF1F010BD92
:1018D000083802400024F4002DE9F84F04006ED0CF
:1018E0002078DFF84C93C007A9F104054AD009F12C
:1018F00004000168C1F38101012908D00068C0F328
:10190000810002280AD1D9F80000400206D52868D3
:10191000800337D560680028E1D033E06068B0F517
:10192000803F10D0B0F5A02F286810D020F4803070
:101930002860286820F4802028606068A8B1FFF73C
:10194000CFF906460DE0286840F48030F4E740F413
:1019500080202860F7E700BFFFF7C2F9801B6428EA
:1019600073D828688003F7D50CE0FFF7B9F906466D
:1019700005E000BFFFF7B4F9801B6428F0D82868A1
:101980008003F7D42078DFF8AC8280074FF0000A9C
:101990003ED5A748001D016811F00C0F08D0006863
:1019A000C0F3810002280BD1D9F80000400207D40F
:1019B0002868800716D5E068012800D112E033E1DD
:1019C000E068B8B10120C8F80000FFF789F90646C1
:1019D00005E000BFFFF784F9801B0228C0D8286803
:1019E0008007F7D52868216920F0F80040EAC10097
:1019F00028600DE0C8F800A0FFF772F9064604E081
:101A0000FFF76EF9801B02281FD828688007F7D4DB
:101A10002078000722D5864F87486169703771B1F9
:101A200001210160FFF75CF9064604E0FFF758F971
:101A3000801B022809D838688007F7D50EE0C0F867
:101A400000A0FFF74DF9064605E082E0FFF748F9F0
:101A5000801B02287DD838688007F7D4207840079B
:101A600068D5DFF8CCB100270BF13C0BDBF80000A8
:101A7000C0000BD4DBF8001041F08051CBF800100F
:101A8000DBF80000012700F0805000906B4E3068BA
:101A9000C00510D4306840F480703060FFF720F942
:101AA000009005E0FFF71CF90099401A022850D871
:101AB0003068C005F6D55E4EA0686C3601280FD0A0
:101AC0000528306810D020F001003060306820F028
:101AD00004003060A068B8B1FFF702F900900FE091
:101AE000306840F00100F4E740F004003060F7E7B0
:101AF000FFF7F6F80099411A41F28830814266D822
:101B000030688007F4D50EE0FFF7EAF8009007E0B0
:101B1000FFF7E6F80099411A41F28830814256D821
:101B200030688007F4D42FB1DBF8001021F0805129
:101B3000CBF80010A069C8B33D49091D0968C1F37D
:101B4000810102294AD00228504607D0C8F8600017
:101B500000E03CE0FFF7C4F804463BE04746C8F825
:101B60006000FFF7BDF8064605E000BFFFF7B8F8D4
:101B7000801B02282BD828688001F7D4D4E90701FC
:101B80000843A16A2E4A490802EB0141626A41EA10
:101B90008211084394F82C1040EA0161C9F8001042
:101BA00001203866FFF79CF8044606E03EE000BFDF
:101BB000FFF796F8001B022809D828688001F7D59E
:101BC00034E000BFFFF78CF8001B022802D9032085
:101BD000BDE8F88F28688001F4D427E00128F7D009
:101BE000D9F80000E26900F4800191421CD1226A18
:101BF00000F03F01914217D147F6C071626A01407F
:101C0000B1EB821F10D1A26A4FF0FF3300F44031D4
:101C100003EB5202B1EB024F06D194F82C1000F006
:101C20007060B0EB016F01D00120D1E70020CFE759
:101C30000438024000004742800E474200700040D6
:101C40000000FFFF10B5401EB0F1807F01D30120DE
:101C500010BD4FF0E02460610F21601701F0AFFD6F
:101C60000020A06107202061002010BDFEE70000D9
:101C7000F0B500230A24302537261F4611E000BFA7
:101C8000B4EB107F02D905EB107C01E006EB107C71
:101C900001F813C001EB430C00015B1C8CF80170D0
:101CA000DBB29342ECD3F0BD10B5FEF7B9FE0020D5
:101CB00010BD00B587B00022059201F001FE029030
:101CC0000120039002200490009205A96846FEF7C7
:101CD0005BFE002800D0012007B000BD00203223A9
:101CE00053709070D070704710B5FEF7E1FE024956
:101CF000F1200860002010BD0C3C024010B500230C
:101D000004E000BF10F8014BCC545B1C9342F9D3A4
:101D1000084610BD2DE9F04117460D460646002441
:101D200010E03259291900230220FEF783FE10B17A
:101D30000120BDE8F08130592959884201D00220A4
:101D4000F7E7241DBC42ECD30020F2E770B586B063
:101D500014216846FEF731FB1A480024016841F05F
:101D600020010160016801F020010591016841F046
:101D700080010160016801F080010591016841F076
:101D8000010101600068104E00F001004FF4007581
:101D90000590002229463046FEF79DFF0320CDE93D
:101DA000024000950125694601953046FEF796FEF2
:101DB00002200095CDE9014069460448FEF78EFEF9
:101DC00006B070BD303802400014024000000240EE
:101DD00010B500220F49104800F042FC08B1FEF790
:101DE000C1FC0E490C4800F02AFE08B1FEF7BAFC0F
:101DF0000B49094800F054FA08B1FEF7B3FC064855
:101E000000F098FE002803D0BDE81040FEF7AABC01
:101E100010BD000008000020EC0000208800002019
:101E200058000020FEE7FEE70148FFF717B9000061
:101E3000DC0900202DE9F04103680D4604461E6CC4
:101E400003EB4511D1F8080BD4F810E04FF400472C
:101E50004FF0200C04F57172BEF1010F09D0DFF8CC
:101E600098E0764539D1020432D500BFC1F8087B2D
:101E70003FE0224B5FEA007E04D59E4239D9000440
:101E8000F4D436E05FEA806E02D5C1F808CB30E0CA
:101E900010F0280F2DD19E4201D90004E6D4C5EBE5
:101EA000C50004EB8000D1F8101BD0F80432C1F358
:101EB0001201591AC0F81412D0F808121944C0F8C7
:101EC000081295B9D4F8100278B9012120680AE007
:101ED00080060AD5C1F808CB07E035B9D4F810025E
:101EE00018B90021184601F09DF9E9B22046FEF725
:101EF000CBFF0020BDE8F0810A31544F0A30544F27
:101F00002DE9F84F0E46C1EBC60100EB8104814676
:101F10000568D4E914103C34884202D90120BDE898
:101F2000F88F081AA168814200D20846C01C8708B1
:101F300005EB46181BE000BFA0EB010AA068504566
:101F400000D282460AF10300870899F81000009039
:101F50001FFA8AF3F2B22846E16801F01BFCE1683F
:101F600001EB0A00E060A16901EB0A00A061D8F86A
:101F7000180980B2B84205D3D4E90501814201D2E3
:101F80000028D9D1D4E90501884208D806F00F010C
:101F900001208840D5F834188143C5F83418002052
:101FA000BDE7704770470178407841EA00207047EC
:101FB000FEF79CBE30B593B030216846FEF7FDF9C0
:101FC00014210CA8FEF7F9F91D480025016841F01D
:101FD00080510160006800F080501190194801683C
:101FE00041F4804101600068022400F480401190B7
:101FF00001200090000401908001CDE906400420FA
:102000000890A820CDE9090407200B906846FFF747
:1020100063FC08B172B6FEE70CA90F2081E831001D
:102020004FF4A0500F904FF48050109005210CA851
:10203000FFF782FB002801D072B6FEE713B030BD77
:1020400040380240007000400248016841F47001CD
:102050000160704788ED00E010B5D0F8B8220AB1F1
:1020600052689047002010BD134610B50A46002163
:1020700000F016FC002010BD134610B50A460021E2
:1020800000F0BEFC002010BD10B50446802100F019
:1020900093FC2046BDE81040002100F08DBC10B537
:1020A0000323C0F89432C0F858211346C0F85C21CD
:1020B0000A46002100F0F4FB002010BD10B50521F8
:1020C000C0F8941200231A46194600F0E9FB0020DC
:1020D00010BD10B50223C0F8943282611346C2616C
:1020E0000A46002100F08CFC002010BD10B5042130
:1020F000C0F8941200231A46194600F081FC002013
:1021000010BD70B5D0F8BC120446B9B10025C1F8B5
:1021100000540220C1F8045481F8180481F81054C6
:1021200081F81404D4F8C00204F52F748068804745
:10213000206800F061FE0020256070BD022070BDA7
:10214000002070477CB50246D2E9AF4084B394F8D2
:102150001814042902D0072958D029E0D4F8001413
:10216000002571B1012931D98902D4F80824A1F5DB
:10217000006111440369D4F8042420469847B8B993
:1021800024E0D4F80414012920D005290BD0C4F888
:1021900004540120ADF806008DF800506946104641
:1021A000FFF772FF12E02178212903D041291DD0C9
:1021B00003207CBD6078A17800EB0120E17800EB82
:1021C0000140217900EB0160C4F80804C4F804540C
:1021D0000320C4F8005484F8180484F8115484F8D7
:1021E000125484F8135484F8140412E06178A2782D
:1021F00001EB0221E27801EB0241227901EB02615D
:10220000C4F80814C26808469047B8E71046FEF7BD
:1022100001FA00207CBD00001B21018000487047AE
:10222000C40000200A21018000487047E00000201F
:1022300010B5D0F8C002062905D80068034900F09F
:10224000DFF9024810BD002010BD0000040E002080
:1022500010B5044640F21C4000F0D0FD0021C8B18A
:10226000C4F8BC0200F580600C4AC0E9022101609C
:102270004160417602220276017441748174C17416
:1022800002754175D4F8C00240688047002800D02C
:10229000032010BD0220C4F8BC1210BD008000084D
:1022A00019B1C0F8C0120020704703207047002009
:1022B00070470000F8B500240D46D0F8BC12264641
:1022C00022462346ADF8004031B12F7817F0600761
:1022D00063D0202F75D101E00320F8BD6E78022273
:1022E000072E6ED2DFE806F05504080C0F323600D8
:1022F0002946FEF701F987E02946FEF7C3F983E096
:10230000FEF72CF980E091F818040A2811D00A2071
:1023100081F818040E2281F8102481F8113481F814
:10232000123481F8133481F8140400BF81F8153495
:102330006AE081F8182481F8103481F8113481F8AA
:10234000123481F8133481F81424EFE7012201F5E7
:10235000836142E091F81804022807D0032805D0D1
:10236000052803D0062801D009284DD181F818246A
:1023700081F8103481F8113481F8123481F8133463
:1023800081F8142481F81534C1F80034C1F80434FC
:102390003AE02946FEF776F836E06B78062B11D046
:1023A00003DC3BB1012B2BD12EE00A2B18D00B2BD9
:1023B00026D11DE090F89C12032921D10222694602
:1023C0000BE01DE069882123B3EB112F04D1EA88CB
:1023D000104E092A00D909223146FFF77AFE13E090
:1023E00090F89C22032A0BD1012201F20C41F4E760
:1023F0006A8812F0FF0F03D190F89C32032B05D0AE
:102400002946FFF741FE03242046F8BDD0B2C1F8AB
:102410000C04F9E7D600002010B50A46024903A0D3
:1024200000F0EEF8004810BDBC03002044465520E3
:10243000436F6E666967000012200880004870478D
:102440002800002010B50A46024903A000F0D8F881
:10245000004810BDBC03002044465520496E7465F9
:1024600072666163650000000420088000487047C0
:102470002400002010B50A46024903A000F0C0F86D
:10248000004810BDBC03002053544D6963726F6552
:102490006C656374726F6E696373000010B50A46F1
:1024A000024903A000F0ACF8004810BDBC030020B6
:1024B00053544D333220446F776E4C6F6164204625
:1024C00069726D7761726520557064617465000092
:1024D00010B51A2008800A480168001D0468001D14
:1024E0000068081809D008220649FFF7C1FB054912
:1024F000042210312046FFF7BBFB0248801E10BDAE
:10250000107AFF1F3E000020F8B504460020ADF809
:10251000000048880D46010A082968D2DFE801F06A
:10252000670409176767454ED4F8B412207C0A681F
:1025300019E0207C02260028D4F8B80205D0C16A30
:10254000684688470146467042E0816AF8E7C1B2B2
:10255000062921D2DFE801F0030A1014181CD4F870
:10256000B402426805E06946904725E0D4F8B40219
:102570008268DAB3207CF6E7D4F8B402C268F8E7E0
:10258000D4F8B4020269F4E7D4F8B4024269F0E77F
:10259000D4F8B4028269ECE7D4F8B8128B6B2BB391
:1025A000C1B26A462046984706E0207CF0B9D4F8CC
:1025B000B802416B68468847014609E0207CA8B90B
:1025C000D4F8B802016B6846884701460720487076
:1025D000EA888AB1BDF8000040B1824200D90246C3
:1025E000ADF800202046FFF774FDF8BDFFE729464F
:1025F0002046FFF749FDF8E72046FFF777FDF4E7AF
:1026000070B5002300281ED00025044602E06D1C92
:10261000EDB2641C2678002EF9D1022404EB4504A7
:1026200014801278CA545B1C0322CA5400245B1C19
:1026300006E0CA545B1CDAB28C54521CD3B2401C64
:102640000278002AF5D170BD01004FF0000004D0DF
:10265000012901D0022901D00320704701207047D1
:1026600078B10023C0F8B832C0F8C032C0F8CC321C
:1026700009B1C0F8B412012180F89C12027000F078
:10268000A3B80320704710B5D0F8C402FEF70AFCC7
:10269000BDE81040FFF7D8BF70B51646044621B11B
:1026A00094F89C02032841D048E0D4F8941204F135
:1026B00014000025022932D1D0E902318B4206D91B
:1026C0005A1A826031462046FFF7D6FC0FE0994245
:1026D00014D14068884211D3D4F8981288420DD2A0
:1026E000002211462046FFF7C7FCC4F89852002389
:1026F0001A461946204600F0D3F810E094F89C02E0
:10270000032805D1D4F8B802C16809B1204688472A
:102710008021204600F050F92046FFF7CFFC94F8C6
:10272000A00201280AD184F8A05207E0D4F8B80228
:1027300042691AB120469047002800D1002070BDA0
:1027400010B51346044621B194F89C02032823D007
:102750002AE0D4F8941204F5AA70032924D1D0E910
:10276000021291420AD98A1A8260C068824200D35A
:10277000024619462046FFF777FC15E094F89C02C4
:10278000032805D1D4F8B802016909B12046884769
:102790002046FFF7ABFC07E0D4F8B80282691AB113
:1027A00020469047002800D1002010BD002070472F
:1027B00010B5012180F89C12D0F8B82212B15268ED
:1027C00001799047002010BD10B5017839BB15493B
:1027D0000222C1F80404C0F8C4124FF0A0400860FF
:1027E000042048600020C1E90320C1E906200862F6
:1027F0004862C86208630846FEF752FE08B1FDF75A
:10280000B1FF80210748FEF70CFB4022002105485C
:10281000FEF70BFB802201210248FEF706FB002099
:1028200010BD0000DC0900200A0601F07F01D0F88D
:10283000C402C1EBC10100EB810002D590F83E005B
:10284000704790F8FE01704710B5D0F8B82222B159
:1028500090F89C32032B02D004E0032010BD126AD2
:1028600002B19047002010BD10B5D0F8B82222B1B7
:1028700090F89C32032B02D004E0032010BD526A72
:1028800002B19047002010BD10B51C461346D0F889
:10289000C4022246FEF734FBBDE81040FFF7D4BE69
:1028A00010B5D0F8C402FEF75BFBBDE81040FFF79F
:1028B000CBBE70B50125044680F89C520020C4F8B8
:1028C00094026060C4F8A402D4F8B802E0B1D4F86D
:1028D000BC1221B1426812B100212046904700226B
:1028E000402311462046FFF7CFFF4026A4F864514D
:1028F0003346002280212046C4F86061FFF7C4FF00
:10290000A5840020266270BD032070BD90F89C1243
:10291000042903D190F89D1280F89C120020704782
:1029200010B5D0F8B81221B190F89C22032A02D039
:1029300004E0032010BDC96901B18847002010BD23
:1029400001740020704710B5D0F8C402FEF77AFE7B
:10295000BDE81040FFF778BE70B5044600F2AA202B
:10296000054600F056F80120C4F89402B4F8B0020D
:10297000C4F8980294F8AA0210F01F010AD00129A5
:102980000ED0022912D000F080012046BDE8704030
:1029900000F012B829462046BDE8704000F0CCB8DF
:1029A00029462046BDE8704000F0F0B9294620468F
:1029B000BDE8704000F04AB910B5D0F8C402FEF787
:1029C000F3FABDE81040FFF73FBE10B5D0F8C402DF
:1029D000FEF753FEBDE81040FFF736BE10B5D0F845
:1029E000C402FEF76BFEBDE81040FFF72DBE90F865
:1029F0009C1280F89D12042180F89C1200207047E0
:102A000010B5D0F8C402FEF709FBBDE81040FFF78F
:102A10001BBE70B5054611F8010B28700878687068
:102A20004C1C2046FFF7BFFA6880A41C2046FFF725
:102A3000BAFAA880A01CFFF7B6FAE88070BD38B5D6
:102A400004460020ADF8000049B1C4F8B812C96AC4
:102A500019B168468847C4F8CC02002038BD03206D
:102A600038BD02460320D2F8B832002B02D01B68D2
:102A700010461847704700002DE9F0410F462C4ED4
:102A80008978002504463170012906D93946204647
:102A9000FFF7FAFA0320BDE8F08194F89C020228BF
:102AA0000CD003281DD039462046FFF7EDFA3178C7
:102AB0002046FFF7D1FA03252846ECE799B32046D4
:102AC0006160FFF7CEFF050004D039462046FFF7CE
:102AD000DBFAF1E72046FFF709FB032084F89C02AC
:102AE000EAE74FF00208C1B1606888421BD0C1B26A
:102AF0002046FFF7B1FA317820466160FFF7B1FF59
:102B0000050010D039462046FFF7BEFA217920464D
:102B1000FFF7A2FA84F89C82CEE784F89C822046D4
:102B20006160FFF799FA2046FFF7E0FAC4E700007A
:102B300084000020FFF749BF2DE9F0410A78002505
:102B400012F0600208D0202A01D0402A71D1D0F8BA
:102B5000B8229268904731E04B78002201260A2B78
:102B600067D2DFE803F0415E6658660805662D29E6
:102B7000FFF7CAFC5FE004468888D8B9C888C8B99E
:102B80004888802816D200F07F0794F89C0203281A
:102B900010D084F89E7239462046FFF7D4FE2046B6
:102BA000FFF7A4FA1FB1022084F89C0243E084F8E6
:102BB0009C6240E020463CE0FFF75EFF05463AE0BD
:102BC000CB88012B35D190F89C32012B04D0022BFD
:102BD00002D0032B2DD104E08260012200F1080114
:102BE00016E00122011D13E090F89C22012A03D077
:102BF000022A01D0032A1CD1CA88022A19D1C66030
:102C0000D0F8A41209B10321C160022200F10C0125
:102C1000FFF75FFA0FE0498801290CD1C0F8A462E0
:102C200011E090F89C32012B08D0022B06D0032B28
:102C300004D0FFF729FA2846BDE8F0814988012928
:102C4000F9D1C0F8A422FFF751FAF4E72DE9F041D9
:102C50000D46044628780026097910F060000BD054
:102C6000202801D040286DD1D4F8B80229468268C6
:102C700020469047064686E06878A8B3012822D00F
:102C800003287CD194F89C02022802D0032876D134
:102C90000BE0002973D0802971D02046FFF78CFE0D
:102CA00080212046FFF788FE6DE0688838B931B191
:102CB000802904D0E88810B92046FFF77DFE204621
:102CC000FFF714FA5FE094F89C020228E1D0032891
:102CD00055D16888A8BB480602D02046FFF7D3FC30
:102CE0002046FFF703FABFE7FFE794F89C020027AE
:102CF000022802D0032842D111E009B180293ED137
:102D0000080601F07F0000EB800004EB800101D594
:102D1000143101E001F5AA7102220F602BE00806D0
:102D200001F00F0000EB800004EB80000BD5808CDD
:102D300040B101F07F0000EB800004EB800514350A
:102D40000CE020E01BE0B0F86401C0B101F07F00AE
:102D500000EB800004EB800505F5AA7541B18029E0
:102D600006D02046FFF760FD10B10120286000E08A
:102D70002F60022229462046FFF7ABF903E02946DF
:102D80002046FFF781F93046BDE8F08170B5064670
:102D9000087800240D4610F0600003D0202801D0F0
:102DA000402817D196F89C02012803D0022801D0B0
:102DB00003280FD1287901280CD8D6F8B8028268E8
:102DC000304690470446E888204306D13046FFF756
:102DD0008DF902E03046FFF757F9204670BD10B577
:102DE0000446FFF7FBFDD4F8B80218B14268217918
:102DF00020469047002010BD7047000000487047F3
:102E0000BC05002070B50A78012302F00F054E784A
:102E1000AB401B4CD0F81C58012E17D045EA034399
:102E2000C0F81C3800EB4210D0F8002B12040BD471
:102E3000D0F8002B0B89C978C3F30A031A4344EA7C
:102E400081410A43C0F8002B002070BD9BB21D4396
:102E5000C0F81C5800EB4210D0F800391B04F3D422
:102E6000D0F800390D89C978C5F30A0589042B43C8
:102E700041EA82510B432343C0F80039E4E70000E4
:102E800000800010D0F800196FF30A01C0F8001993
:102E9000D0F8041841F48071C0F80418002070477D
:102EA00070B5044606990A9E049D0D98012916D016
:102EB000E06840F04000E060204600F02BF8A16B95
:102EC0001EB321F48031A163012D07D1A16841F027
:102ED0000601A160A16841F02001A16070BDA16B55
:102EE00021F48031A163E168094A1140E160E168A1
:102EF00021F44011E160012803D1E06840F4801022
:102F0000E060204600F006F8DEE741F48031DAE7C1
:102F1000BFFFBDFF08B500220D490092009B5B1C5E
:102F200000938B420CD80369002BF7DA00920269F8
:102F300042F001020261009A521C00928A4201D9B9
:102F4000032008BD0269D207F5D1002008BD0000AA
:102F5000400D0300D0F8001E21F00301C0F8001E50
:102F6000D0F8041821F00201C0F8041800207047BE
:102F7000D0F8001E21F00301C0F8001ED0F804189C
:102F800041F00201C0F80418002070472DE9F04F0D
:102F900000250E460446DDF82CC0DDF824B0109F55
:102FA0002846294604EB8002C2F80411401C0F2871
:102FB000F8D32046C7B1806B20F40012A263A06B47
:102FC00040F40022A26308468846C4F8000ED4F8F4
:102FD00000182046C4F80018BCF1010F16D0D0F834
:102FE000001841F0030116E0D0F8040840F0020296
:102FF000C4F80428A06B40F40012A263A06B20F474
:103000000022A263A06B20F48022DBE7D0F8001836
:103010000BB141F00101C0F80018102100F094FA42
:1030200000B10125204600F07BFA00B101254046A1
:10303000C4F81088C4F81488C4F81C8800214FF024
:1030400000694FF0904A4FF67F3314E004EB4112D1
:10305000D2F800C9BCF1000F06DA11B1C2F800A91C
:1030600004E0C4F8009901E0C2F80009C2F81009B0
:10307000C2F80839491C8E42E8D8002115E000BF8B
:1030800004EB4112D2F800CBBCF1000F06DA11B10B
:10309000C2F800AB04E0C4F8009B01E0C2F8000BEA
:1030A000C2F8100BC2F8083B491C8E42E8D8D4F88D
:1030B000101821F48072C4F81028A0616FF08040CD
:1030C0006061BBF1000F03D1A06940F01000A06166
:1030D000A06909490843A0610C9818B1A06940F0A3
:1030E0000800A061012F03D1A06904490843A06131
:1030F0002846BDE8F08F000000383C800400004006
:10310000816821F0010181600020704770B50D7861
:103110004E78434CEBB200EB4313012E1FD0D3F893
:10312000100B6FF31200C3F8100BD3F8100B2040F4
:10313000C3F8100B486908B188684861D3F8100BD0
:1031400040F40020C3F8100BD3F8100B8C68C4F3C4
:1031500012042043C3F8100B012A55D058E04E69E1
:10316000002ED3F8106932D06FF31206C3F810693D
:10317000D3F810692640C3F810694E698C68A642DE
:1031800000D94C61D3F8104944F40024C3F8104925
:10319000D3F810494E69C6F312063443C3F81049F8
:1031A000012A22D000EB4512D2F8003943F0044343
:1031B000C2F800394A6932B3D0F83428097801F0EE
:1031C0000F03012199400A43C0F8342826E0264025
:1031D000C3F81069D3F8104944F40024C3F8104927
:1031E000D3F810496FF31204D8E7096919B100EB5D
:1031F0004512C2F8141900EB4510D0F8001941F03F
:103200000441C0F8001909E0C86808B1C3F8140BFC
:10321000D3F8000B40F00440C3F8000B002070BD51
:10322000FFFF07E010B5036C134CA34203D9D0F89D
:10323000003B002B1EDB0023C0F8103BD0F8103BF6
:1032400043F40023C0F8103BD0F8103B43F01803C0
:10325000C0F8103BD0F8103B43F0C043C0F8103B1F
:10326000012907D1C0F8142BD0F8001B41F08021B0
:10327000C0F8001B002010BD0A30544F4A780B786C
:10328000012A00EB43100BD0D0F8002B22F40012DF
:10329000C0F8002BC978032914D0022912D017E0F6
:1032A000D0F8002922F40012C0F80029C9780329B7
:1032B00001D002290CD1D0F8001941F08051C0F89A
:1032C000001905E0D0F8001B41F08051C0F8001B48
:1032D000002070470A784B78D1B200EB4110012BE7
:1032E00012D0D0F8001B002906DB2AB1D0F8001B51
:1032F00021F08041C0F8001BD0F8001B41F4001100
:10330000C0F8001B00207047D0F80019002906DB28
:103310002AB1D0F8001921F08041C0F80019D0F886
:10332000001941F40011C0F80019EBE7F8B50C786A
:103330004F78774DE3B26FF0604600EB4313012FF7
:1033400026D0D3F8104B6FF31204C3F8104BD3F808
:10335000104B2C40C3F8104B4C69002C74D08D6876
:103360002C44641EB4FBF5F4D3F8105BA4B206EA57
:10337000C4463543C3F8105BD3F8105B8E686643D0
:10338000C6F312042543C3F8105B012A71D0A6E0EE
:103390004F691FB3D3F810796FF31207C3F8107990
:1033A000D3F810792F40C3F810794F698D682F44F6
:1033B0007F1EB7FBF5F506EAC545D3F8106935431E
:1033C000C3F81059D3F810594E69C6F312063543A5
:1033D000C3F81059CD78012D10D01BE0D3F8106937
:1033E0002E40C3F81069D3F8105945F40025C3F8EE
:1033F0001059D3F810596FF3120509E0D3F810599A
:1034000025F0C045C3F81059D3F8105945F00055C0
:10341000C3F81059012A18D000EB4413D3F800491F
:1034200044F00444C3F80049CC78012C2FD04A69F9
:1034300062B3D0F83428097801F00F0301219940D4
:103440000A43C0F8342860E036E00A691AB100EB9C
:103450004413C3F81429C97801290FD1D0F80818EA
:10346000C90500EB4411D1F8002903D442F0005201
:1034700002E030E042F08052C1F8002900EB441035
:10348000D0F8001941F00441C0F800193DE0D0F82F
:103490000848E405D3F8004902D444F0005401E0A0
:1034A00044F08054C3F8004900928A8A93B20A78A3
:1034B000C96800F06FF928E0D3F8104B8D68C5F3A8
:1034C00012052C43C3F8104BD3F8104B44F40024DE
:1034D000C3F8104B59E7CA680AB1C3F8142BC9786E
:1034E00001290CD1D0F80808C005D3F8000B02D48C
:1034F00040F0005001E040F08050C3F8000BD3F8DA
:10350000000B40F00440C3F8000B0020F8BD0000A1
:10351000FFFF07E0816841F00101816000207047F2
:1035200008B500210091102101610649009A521C42
:1035300000928A4201D9032008BD0269D206F5D45F
:10354000002008BD400D030008B500220092202293
:1035500042EA811101610649009A521C00928A4296
:1035600001D9032008BD02699206F5D4002008BDE8
:10357000400D0300D0F8080810F0060004D002281F
:1035800003D0062801D00F20704702207047406901
:1035900000F001007047D0F81818D0F81C08084057
:1035A00080B27047D0F81818D0F81C080840000CFA
:1035B000704710B5D0F81038D0F8342801F00F0457
:1035C00000EB4110E24002F00102D0F8080943EAA2
:1035D000C212104010BD00EB4111D1F8081BD0F809
:1035E000140808407047416980690840704730B549
:1035F00003460846940802F00301002203F58053B5
:1036000003E01D6840F8045B521CA242F9D3002974
:103610000BD01C680022D50024FA05F3491E521C69
:10362000090400F8013B090CF5D130BD70B5044622
:10363000C068002520F0C040E060012901D079B1C8
:1036400020E0E06840F00050E0600120FDF798F9CC
:1036500060696D1C10F0010F10D1322DF5D30DE013
:10366000E06840F08040E0600120FDF789F9606982
:103670006D1C10F0010F01D0322DF5D3322D01D089
:10368000002070BD012070BDD0F8002822F4FE6239
:10369000C0F80028D0F800284FF4FE6303EA0111B7
:1036A0000A43C0F80028002070470000022A3ED1DB
:1036B000264A274B0A449A4201D20F2138E0254A74
:1036C000254B0A449A4201D20E2131E0234A244B71
:1036D0000A449A4201D20D212AE0224A224B0A448E
:1036E0009A4201D20C2123E0204A214B0A449A42FB
:1036F00001D20B211CE01F4A1F4B0A449A4201D2FF
:103700000A2115E01D4A1E4B0A449A420FD31D4A56
:103710001D4B0A449A4201D2082109E01B4A114478
:103720001B4A914201D2072102E0062100E0092153
:10373000C26822F47052C260C2684FF4705303EA48
:1037400081210A43C260002070470000405327FFD8
:1037500000350C00401E1BFF40420F0000DC0BFF39
:10376000804F1200808CF9FE20D6130060B6E5FE73
:1037700060E3160000D3CEFE40771B00C05BB3FEB3
:10378000C091210000CA91FE20753800E05459FE16
:10379000E09C410010B5029C74B9DB1C9C0800EB56
:1037A0000230002300F5805004E000BF51F8042BE4
:1037B00002605B1CA342F9D3002010BDFEE709079D
:1037C000090E002804DB00F1E02080F800147047A7
:1037D00000F00F0000F1E02080F8141D7047000099
:1037E0000149086070470000040000204FF47A711E
:1037F000484300F001B8000070B54FF0E02400220B
:1038000065690949A36909684843A1699942FCD0DF
:1038100002D2A3EB010302E0A5EB010633441A44F4
:103820000B468242F1D370BD0400002001680A4AB1
:103830001140B1F1005F0DD14FF0E0210A6922F093
:1038400001020A614168054A1160006880F3088836
:1038500072B60847704700000000FE2F00000020ED
:10386000FDF74CFAFEF7A6FBFEF770FAFEF7B0FA8A
:10387000A820FFF7B5FF01210E48FDF727FA012820
:1038800003D00D48FFF7D2FFFEE70C4C4FF4007554
:103890006420FFF7ABFF012229462046FDF71BFA03
:1038A0006420FFF7A3FF002229462046FDF713FA04
:1038B000EEE7000000000240008000080014024013
:1038C0001C49884201D2002070471B49884201D21E
:1038D000012070471949884201D2022070471849D7
:1038E000884201D2032070471649884201D2042041
:1038F00070471549884201D2052070471349884214
:1039000001D2062070471249884201D20720704731
:103910001049884201D2082070470F49884201D2DD
:10392000092070470D49884201D20A2070470B20B8
:1039300070470000004000080080000800C0000838
:10394000000001080000020800000408000006084A
:103950000000080800000A0800000C0800000E081B
:103960004FF04070E1EE100A7047000000000000C8
:1039700000000102030406070809000040496E74B4
:1039800065726E616C20466C6173682020202F3058
:103990007830383030303030302F30322A303136D5
:1039A0004B612C30322A3031364B672C30312A3083
:1039B00036344B672C30372A3132384B67000000E1
:1039C000E039000800000020EC000000C4010008FD
:1039D000CC3A0008EC0000207C140000E001000854
:1039E00000000000000000003924000869240008DD
:1039F000752400089D240008D1240008192400081B
:103A000045240008040309041201000200000040DC
:103A1000830411DF00020102030100001A03000009
:103A20000000000000000000000000000000000096
:103A300000000000000000007C390008E91C0008BC
:103A4000A91C0008B31C0008151D0008FD1C000877
:103A5000DD1C000801000000100000000000000054
:103A60000024F40000000000512200080321000897
:103A7000B52200084521000841210008000000008F
:103A800000000000AF22000800000000000000005D
:103A9000192200081922000819220008252200080E
:103AA0003122000809021B00010102C03209040092
:103AB0000000FE01020609210BFF0000041A0100AC
:0C3AC0000A0600020000004001000000A7
:040000050800018965
:00000001FF
