:020000040800F2
:10800000A00E002029820008DF9300085593000885
:10801000DD9300081F84000821A50008000000006F
:108020000000000000000000000000005D95000856
:1080300021840008000000005B9500086995000895
:1080400043820008438200084382000843820008FC
:1080500043820008438200084382000843820008EC
:1080600043820008438200084382000843820008DC
:1080700043820008438200084382000843820008CC
:1080800043820008438200084382000843820008BC
:1080900043820008438200084382000843820008AC
:1080A000438200084382000843820008438200089C
:1080B000438200084382000843820008438200088C
:1080C000438200084382000843820008438200087C
:1080D000438200084382000843820008438200086C
:1080E000438200084382000843820008438200085C
:1080F000438200084382000843820008438200084C
:10810000438200084382000843820008438200083B
:10811000438200084382000843820008438200082B
:10812000438200084382000843820008438200081B
:10813000438200084382000843820008438200080B
:10814000438200084382000843820008E19300084C
:1081500043820008438200084382000843820008EB
:1081600043820008438200084382000843820008DB
:108170004382000843820008438200080000000098
:10818000438200084382000800F002F800F03CF847
:108190000AA090E8000C82448344AAF10107DA4562
:1081A00001D100F031F8AFF2090EBAE80F0013F078
:1081B000010F18BFFB1A43F00103184734240000D5
:1081C00054240000103A24BF78C878C1FAD8520766
:1081D00024BF30C830C144BF04680C607047000041
:1081E0000023002400250026103A28BF78C1FBD8C0
:1081F000520728BF30C148BF0B6070471FB502F05F
:10820000E9F91FBD10B510BD00F0CFF81146FFF71A
:10821000F5FF02F0BDF900F0EDF803B4FFF7F2FF4F
:1082200003BC00F0F5F80000094880470948004702
:10823000FEE7FEE7FEE7FEE7FEE7FEE7FEE7FEE716
:10824000FEE7FEE704480549054A064B7047000073
:108250000196000889810008A0080020A00E0020D7
:10826000A00A0020A00A002053EA020C00F0698056
:108270002DE9F04B4FF00006002B1FBFB3FA83F53A
:1082800003FA05F424FA05F65E4012BF1643B2FA6B
:1082900082F502FA05F4C5F120051EBF22FA05FC9D
:1082A00044EA0C04203556EA044C4FEA144418BF43
:1082B000641C4FF000084FF00009904271EB030C72
:1082C00039D3002919BFB1FA81F701FA07F6B0FADC
:1082D00080F700FA07F6C7F120071EBF20FA07FC57
:1082E00046EA0C062037B6FBF4FCA7EB0507103F67
:1082F00007F01F0BCBF120060CFA0BFB2CFA06F64D
:1083000044BFB3460026202FA4BF5E464FF0000BAB
:108310005BEA060C08BF4FF0010B19EB0B09ABFB36
:10832000027C48EB0608C01B06FB02CC0BFB03CC0F
:1083300071EB0C01C1E70B46024641464846BDE8D9
:10834000F08B13B54FF000004FF00001AFF3008049
:10835000BDE81C4070474FF0000200B5134694463C
:108360009646203922BFA0E80C50A0E80C50B1F18D
:108370002001BFF4F7AF090728BFA0E80C5048BFA1
:108380000CC05DF804EB890028BF40F8042B08BF3F
:10839000704748BF20F8022B11F0804F18BF00F83B
:1083A000012B7047704770477047754600F02CF8F6
:1083B000AE4605006946534620F00700854618B0D2
:1083C00020B5FFF73FFFBDE820404FF000064FF01B
:1083D00000074FF000084FF0000B21F00701AC46FA
:1083E000ACE8C009ACE8C009ACE8C009ACE8C00919
:1083F0008D46704710B50446AFF300802046BDE8B7
:108400001040FFF70ABF00000048704740080020F6
:1084100001491820ABBEFEE7260002007047FEE7C8
:10842000704772B6FEE700002DE9F84FDFF8BCA1F7
:10843000002201250AF1040B03264FF00F090BF16E
:10844000040E00BF0B6805FA02F42340A34270D16A
:108450000F7907F00307012F01D0022F16D187688B
:108460004FEA420806FA08FC27EA0C07D1F80CC0CC
:108470000CFA08FC4CEA070CC0F808C04768A74390
:108480000C79C4F3001494403C4344600C79E443F9
:10849000A4070AD0C4684FEA420C06FA0CF7BC43A2
:1084A0008F6807FA0CF72743C7600C7904F00304C0
:1084B000022C12D1D40800EB840CDCF820405707C2
:1084C000FF0E09FA07F824EA0804D1F8108008FA28
:1084D00007F848EA0408CCF8208004684FEA420C08
:1084E00006FA0CF7BC430F7907F0030707FA0CF7FD
:1084F000274307604C6814F4403F70D03C4C276819
:1085000047F480472760246822F0030704F480447E
:108510000094384C07EB040CDCF8084897074FEA46
:10852000177809FA08F7BC43334FB84202D1002745
:1085300024E054E0314FB84201D101271EE0304F12
:10854000B84201D1022719E02E4FB84201D10327CA
:1085500014E02D4FB84201D104270FE02B4FB84251
:1085600001D105270AE02A4FB84201D1062705E0CC
:10857000284FB84201D1072700E0082707FA08F77B
:108580002743CCF80878DAF800405746D1F804C001
:108590009C435FEACC3C00D51C433C60DBF80040C8
:1085A0005F46D1F804C09C435FEA8C3C00D51C4375
:1085B0003C60DEF800407746D1F804C09C435FEA97
:1085C000CC2C00D51C433C60084F0C373C68D1F8DC
:1085D00004C09C435FEA8C2C00D51C433C60521CB9
:1085E000102AFFF42FAFBDE8F88F0000003C0140D7
:1085F00044380240003001400000024000040240C4
:1086000000080240000C024000100240001402402A
:1086100000180240001C02400AB181617047090441
:10862000FBE700000148806870470000040000205C
:10863000024881680278114481607047040000207C
:108640000B4810B5016841F400710160016841F404
:1086500080610160016841F480710160032000F0D5
:1086600061F80F2000F006F800F024F8002010BD9B
:10867000003C024070B50D4D04464FF47A712878E5
:10868000B1FBF0F00A490968B1FBF0F000F04EFED2
:1086900048B9102C07D200222146501E00F022F8C3
:1086A00000206C6070BD012070BD0000040000203F
:1086B000100000200A4808B5016841F480410160BB
:1086C000006800F4804000900548001F016841F0F8
:1086D00080510160006800F08050009008BD0000EB
:1086E00044380240F0B40E4B1B680C46C3F302231F
:1086F000C3F10705042D00D90425191D072901D24E
:10870000002300E0DB1E012606FA05F1491E214088
:1087100099409E40761E16403143F0BC01F001BFE7
:108720000CED00E0064900F0070208684FF6FF0371
:10873000184040EA0220034A1043086070470000D6
:108740000CED00E00000FA057047D0F8040401F0D9
:10875000C6B8C1EBC10200EB8202D0F80404926CEF
:1087600001F033B8C1EBC10200EB8202D0F804047F
:10877000D2F8082201F07DB8D0F8040401F0B1B8B5
:1087800070B5044601F00F006268904201D90120E3
:1087900070BD0B0601F00F01C1EBC10104EB8101BB
:1087A0004FF001024FF0000503D581F83D203C3128
:1087B00003E081F8FD5101F5FE718D70087094F8A9
:1087C000BC03012808D084F8BC23206801F050FCC9
:1087D00084F8BC53002070BD022070BD2DE9F0412B
:1087E00004460F0601F00F00C0EBC00104EB81014D
:1087F0004FF001064FF0000503D581F83D603C3194
:1088000003E081F8FD5101F5FE7108708A60CB70BC
:108810004A7802B1C880022B00D10D7194F8BC03D4
:10882000012809D084F8BC63206801F01BFB2846AE
:1088300084F8BC53BDE8F0810220FBE770B50C461C
:1088400001F00F05C5EBC50100EB8101C1F8103245
:10885000C1F808220023C1F8143281F8FD3181F8F3
:10886000FC51036901F5FE71012B00D10A61220759
:10887000027C006803D001F053FC002070BD01F0C1
:108880003FFBFAE770B504460D4601F00F00616842
:10889000884201D9012070BD29064FF000064FF033
:1088A000010207D5C0EBC00104EB810181F83D2036
:1088B0003C3107E0C5EBC50104EB810181F8FD61A6
:1088C00001F5FE718A70087094F8BC03012807D086
:1088D00084F8BC23206801F0F7FB280702D007E0EA
:1088E000022070BD217C04F57172206801F094FBB8
:1088F00084F8BC63002070BD70B50C4601F00F0514
:10890000C5EBC50100EB81010B658A6400234B6553
:10891000012381F83D3001F83C5F0369012B00D150
:108920000A612207027C006803D001F0F9FB0020F5
:1089300070BD01F0E5FAFAE72DE9FC5F0568044631
:10894000284601F004FD00287ED1206801F02BFDAF
:10895000002879D0206801F026FD800704D5216821
:10896000486900F002004861206801F01CFDC10662
:1089700004F57170009034D52068816921F01001F0
:1089800081612F6A07F00F00C0EBC00004EB800686
:10899000C7F3434006F5FE76022802D0062811D020
:1089A0001AE047F6F070074216D0C7F30A121746CE
:1089B0002846F16801F0FBFCF0683844F060B069CB
:1089C000384408E008222846009901F0F0FCB0691C
:1089D000C7F30A110844B0612068816941F01001B1
:1089E0008161206801F0DFFC00034FF0010A4FF0C5
:1089F000080B5BD50026206801F0B4FC0746DFF8C1
:108A0000689351E0F8074DD0F1B2206801F0C3FC43
:108A10008046C00707D005EB4611C1F808AB3146C8
:108A2000204600F0E3FC5FEA087022D505EB461112
:108A3000C1F808BB2068016C00EB46100191D0F82A
:108A4000082B494507D900E08BE1110403D54FF409
:108A50000041C0F8081B204600F0C2F901984845C3
:108A600007D92069012804D120680121009A01F06A
:108A7000D3FA5FEAC86004D505EB46111020C1F8AF
:108A8000080B5FEA886004D505EB46112020C1F889
:108A9000080B5FEA884005D505EB46104FF40051FE
:108AA000C0F8081B7F08761C002FABD1206801F0AE
:108AB0007AFC40034FF000095CD5206801F04BFCC4
:108AC0000746002654E0F80750D0F1B2206801F0C4
:108AD00050FC8046C00723D006F00F020AFA02F0CD
:108AE000D5F834288243C5F8342805EB4610C0F881
:108AF00008A9206901280FD1C6EBC60004EB80004D
:108B0000D0E911211144816436B9206D20B9206863
:108B10000121009A01F080FAF1B22046FFF719FE18
:108B20005FEA087003D505EB4611C1F808B95FEAA2
:108B3000C86004D505EB46111020C1F808095FEAAA
:108B4000486004D505EB46114020C1F808095FEAEA
:108B5000887004D505EB46110220C1F808095FEAC8
:108B6000086003D53146204600F0A6FC7F08761C3D
:108B7000002FA8D1206801F016FC002811DAD5F8E2
:108B8000040820F00100C5F8040894F8F403012853
:108B900029D0204600F008F92068416901F0004121
:108BA0004161206801F0FFFB00050BD5D5F80808EE
:108BB000C00702D0204600F01BF92068416901F48B
:108BC00000614161206801F0EEFBC00468D5D5F872
:108BD000040820F00100C5F804081021206801F005
:108BE00093FB002127E084F8F49300212046FFF74F
:108BF000ABFDD1E705EB41104FF67F32C0F80829F5
:108C0000D0F8003923F40013C0F80039D0F8003947
:108C100043F00063C0F80039C0F8082BD0F8002BEF
:108C200022F40012C0F8002BD0F8002B42F00062B2
:108C3000C0F8002B491C60688842DBD8D5F81C08B6
:108C400040F00110C5F81C08206B60B1D5F884080D
:108C500040F00B00C5F88408D5F8440840F00B003C
:108C6000C5F844080CE0D5F8141842F22B00014373
:108C7000C5F81418D5F8100840F00B00C5F8100816
:108C8000D5F8000820F4FE60C5F80008217C2068B3
:108C9000009A01F0C1F92068416901F480514161F5
:108CA000206801F080FB800415D5206801F01AF9D6
:108CB000206801F03FFBE06000F04CF90146227BA8
:108CC000206801F0A5FB204600F058F820684169B3
:108CD00001F400514161206801F065FB000707D5F0
:108CE000204600F065F82068416901F00801416103
:108CF000206801F058FBC00208D50021204600F092
:108D000035F82068416901F480114161206801F063
:108D10004AFB800208D50021204600F02BF820688D
:108D2000416901F400114161206801F03CFB400001
:108D300007D52046FFF709FD2068416901F0804111
:108D40004161206801F02FFB40070AD52068456883
:108D5000680702D52046FFF70FFD206841682943C8
:108D60004160BDE8FC9F00000A30544FD0F8040475
:108D700000F0D3BDD0F8040400F0DFBD70B50446A8
:108D8000C068012570B1022801D0FFF74AFB2946CF
:108D9000D4F8040400F03DFED4F80404BDE87040AB
:108DA00000F0F0BD0025F2E7D0F8040400F017BE93
:108DB000D0F8040400F01DBE10B5044690F8BC03C2
:108DC00001280BD0012084F8BC0384F838102068F7
:108DD00001F00CFB002084F8BC0310BD022010BD84
:108DE000D0F8042400F57171104600F01EBE00009A
:108DF00010B50446D0F8040400F050FE2068D0F806
:108E0000001E41F00101C0F8001E206A002804D0B5
:108E10000248016841F00601016010BD10ED00E05C
:108E20002DE9F0470E46050065D0DFF81481D8F82B
:108E30000000F7B200F00700B04207D288F80070D7
:108E4000D8F8000000F00700B04254D128683D4C2B
:108E5000810712D5400703D5206840F4E050206018
:108E60002878000703D5206840F46040206020681F
:108E7000A96820F0F000084320602878C0072DD0B2
:108E8000304968680839012812D0022813D0032815
:108E900011D00968890700292DDA216821F0030122
:108EA00001432160FFF7BEFB814641F2883A0EE0A4
:108EB00009688903EFE709688901ECE7FFF7B2FB6E
:108EC000A0EB0901514502D90320BDE8F0872068D5
:108ED000696800F00C00B0EB810FEFD1D8F80010FA
:108EE000404601F00701B14207D90770006800F061
:108EF0000700B04201D00120E7E72878400705D5F8
:108F00002068E96820F4E0500843206028780007D2
:108F100006D52068296920F4604040EAC10020603D
:108F200000F01EF82168084AC1F30311515CC840E3
:108F30000649086006480068FFF79CFB0020C4E76C
:108F4000003C024008380240DEA500081000002066
:108F50000800002001480068704700001000002051
:108F6000154810B5006810F00C02144813D04110D9
:108F7000042A0FD0082A0ED10F4C241F2268236820
:108F800002F03F025B0207D52068C0F38810A0FB07
:108F9000010106E0084610BD2168C1F38811A1FB5C
:108FA00000010023FFF760F92168C1F30141491C6A
:108FB0004900B0FBF1F010BD083802400024F40075
:108FC0002DE9F84F04006ED02078DFF84C93C007ED
:108FD000A9F104054AD009F104000168C1F3810137
:108FE000012908D00068C0F3810002280AD1D9F80D
:108FF0000000400206D52868800337D56068002845
:10900000E1D033E06068B0F5803F10D0B0F5A02F1C
:10901000286810D020F480302860286820F4802050
:1090200028606068A8B1FFF7FDFA06460DE02868E1
:1090300040F48030F4E740F480202860F7E700BF78
:10904000FFF7F0FA801B642873D828688003F7D5EF
:109050000CE0FFF7E7FA064605E000BFFFF7E2FA8B
:10906000801B6428F0D828688003F7D42078DFF8C4
:10907000AC8280074FF0000A3ED5A748001D01686A
:1090800011F00C0F08D00068C0F3810002280BD14A
:10909000D9F80000400207D42868800716D5E06898
:1090A000012800D112E033E1E068B8B10120C8F82E
:1090B0000000FFF7B7FA064605E000BFFFF7B2FA77
:1090C000801B0228C0D828688007F7D52868216946
:1090D00020F0F80040EAC10028600DE0C8F800A0C8
:1090E000FFF7A0FA064604E0FFF79CFA801B02286F
:1090F0001FD828688007F7D42078000722D5864F2C
:1091000087486169703771B101210160FFF78AFA00
:10911000064604E0FFF786FA801B022809D8386863
:109120008007F7D50EE0C0F800A0FFF77BFA0646EF
:1091300005E082E0FFF776FA801B02287DD83868C8
:109140008007F7D42078400768D5DFF8CCB1002736
:109150000BF13C0BDBF80000C0000BD4DBF8001077
:1091600041F08051CBF80010DBF80000012700F03F
:10917000805000906B4E3068C00510D4306840F4C9
:1091800080703060FFF74EFA009005E0FFF74AFA72
:109190000099401A022850D83068C005F6D55E4EB6
:1091A000A0686C3601280FD00528306810D020F058
:1091B00001003060306820F004003060A068B8B171
:1091C000FFF730FA00900FE0306840F00100F4E75C
:1091D00040F004003060F7E7FFF724FA0099411AE5
:1091E00041F28830814266D830688007F4D50EE0BD
:1091F000FFF718FA009007E0FFF714FA0099411AF8
:1092000041F28830814256D830688007F4D42FB1BB
:10921000DBF8001021F08051CBF80010A069C8B332
:109220003D49091D0968C1F3810102294AD002287C
:10923000504607D0C8F8600000E03CE0FFF7F2F9C4
:1092400004463BE04746C8F86000FFF7EBF90646E6
:1092500005E000BFFFF7E6F9801B02282BD828683D
:109260008001F7D4D4E907010843A16A2E4A4908CE
:1092700002EB0141626A41EA8211084394F82C1022
:1092800040EA0161C9F8001001203866FFF7CAF909
:10929000044606E03EE000BFFFF7C4F9001B0228C9
:1092A00009D828688001F7D534E000BFFFF7BAF984
:1092B000001B022802D90320BDE8F88F286880012E
:1092C000F4D427E00128F7D0D9F80000E26900F4CF
:1092D000800191421CD1226A00F03F01914217D1D6
:1092E00047F6C071626A0140B1EB821F10D1A26AD9
:1092F0004FF0FF3300F4403103EB5202B1EB024F69
:1093000006D194F82C1000F07060B0EB016F01D022
:109310000120D1E70020CFE7043802400000474297
:10932000800E4742007000400000FFFF10B5401E55
:10933000B0F1807F01D3012010BD4FF0E0246061C7
:109340000F21601701F0EDF80020A06107202061D7
:10935000002010BDFEE7000070B586B014216846FD
:10936000FEF7F9FF1A480024016841F0200101606E
:10937000016801F020010591016841F08001016060
:10938000016801F080010591016841F0010101606F
:109390000068104E00F001004FF4007505900022A7
:1093A00029463046FFF738F90320CDE90240009501
:1093B0000125694601953046FFF736F802200095F1
:1093C000CDE9014069460448FFF72EF806B070BDAC
:1093D000303802400014024000000240FEE7FEE781
:1093E0000148FFF7A9BA0000380400202DE9F04138
:1093F00003680D4604461E6C03EB4511D1F8080BBB
:10940000D4F810E04FF400474FF0200C04F57172CF
:10941000BEF1010F09D0DFF898E0764539D102049A
:1094200032D500BFC1F8087B3FE0224B5FEA007EE7
:1094300004D59E4239D90004F4D436E05FEA806E48
:1094400002D5C1F808CB30E010F0280F2DD19E4294
:1094500001D90004E6D4C5EBC50004EB8000D1F8C7
:10946000101BD0F80432C1F31201591AC0F81412BB
:10947000D0F808121944C0F8081295B9D4F81002AF
:1094800078B9012120680AE080060AD5C1F808CB26
:1094900007E035B9D4F8100218B90021184600F0D9
:1094A000BBFDE9B22046FFF75DF90020BDE8F08181
:1094B0000A31544F0A30544F2DE9F84F0E46C1EB94
:1094C000C60100EB810481460568D4E914103C34E0
:1094D000884202D90120BDE8F88F081AA1688142AC
:1094E00000D20846C01C870805EB46181BE000BFE9
:1094F000A0EB010AA068504500D282460AF10300A1
:10950000870899F8100000901FFA8AF3F2B22846F3
:10951000E16800F0F1FFE16801EB0A00E060A16999
:1095200001EB0A00A061D8F8180980B2B84205D34F
:10953000D4E90501814201D20028D9D1D4E905013D
:10954000884208D806F00F0101208840D5F8341869
:109550008143C5F834180020BDE770477047017893
:10956000407841EA00207047FFF762B830B593B009
:1095700030216846FEF7EFFE14210CA8FEF7EBFE43
:109580001D480025016841F080510160006800F02D
:10959000805011901948016841F4804101600068D1
:1095A000022400F4804011900120009000040190FA
:1095B0008001CDE9064004200890A820CDE90904E7
:1095C00007200B906846FFF7FBFC08B172B6FEE778
:1095D0000CA90F2081E831004FF4A0500F904FF4F8
:1095E0008050109005210CA8FFF71AFC002801D02C
:1095F00072B6FEE713B030BD403802400070004044
:109600000448016841F47001016002490248803950
:109610000860704788ED00E00080000810B5D0F8C1
:10962000B8220AB152689047002010BD134610B509
:109630000A46002100F09DF9002010BD134610B528
:109640000A46002100F033FA002010BD10B5044690
:10965000802100F01AFA2046BDE81040002100F0F9
:1096600014BA10B50521C0F8941200231A46194601
:1096700000F07FF9002010BD10B50223C0F894322D
:1096800082611346C2610A46002100F010FA0020F0
:1096900010BD10B50421C0F8941200231A461946D3
:1096A00000F005FA002010BDF8B504460020ADF822
:1096B000000048880D46010A082968D2DFE801F059
:1096C000670409176767454ED4F8B412207C0A680E
:1096D00019E0207C02260028D4F8B80205D0C16A1F
:1096E000684688470146467042E0816AF8E7C1B2A1
:1096F000062921D2DFE801F0030A1014181CD4F85F
:10970000B402426805E06946904725E0D4F8B40207
:109710008268DAB3207CF6E7D4F8B402C268F8E7CE
:10972000D4F8B4020269F4E7D4F8B4024269F0E76D
:10973000D4F8B4028269ECE7D4F8B8128B6B2BB37F
:10974000C1B26A462046984706E0207CF0B9D4F8BA
:10975000B802416B68468847014609E0207CA8B9F9
:10976000D4F8B802016B6846884701460720487064
:10977000EA888AB1BDF8000040B1824200D90246B1
:10978000ADF800202046FFF777FFF8BDFFE7294638
:109790002046FFF75BFFF8E72046FFF77AFFF4E784
:1097A00001004FF0000004D0012901D0022901D0AE
:1097B000032070470120704710B5D0F8C402FEF7AF
:1097C000DFFFBDE81040FFF7EBBF70B5164604465B
:1097D00021B194F89C02032841D048E0D4F89412B7
:1097E00004F114000025022932D1D0E902318B4264
:1097F00006D95A1A826031462046FFF71FFF0FE054
:10980000994214D14068884211D3D4F89812884202
:109810000DD2002211462046FFF710FFC4F89852DF
:1098200000231A461946204600F0A3F810E094F8E9
:109830009C02032805D1D4F8B802C16809B12046BA
:1098400088478021204600F020F92046FFF709FFD5
:1098500094F8A00201280AD184F8A05207E0D4F8B5
:10986000B80242691AB120469047002800D1002072
:1098700070BD10B51346044621B194F89C0203282C
:1098800023D02AE0D4F8941204F5AA70032924D135
:10989000D0E9021291420AD98A1A8260C0688242D3
:1098A00000D3024619462046FFF7C0FE15E094F8A3
:1098B0009C02032805D1D4F8B802016909B12046F9
:1098C00088472046FFF7E5FE07E0D4F8B802826932
:1098D0001AB120469047002800D1002010BD00207A
:1098E000704710B5012180F89C12D0F8B82212B14F
:1098F000526801799047002010BD0A0601F07F01EF
:10990000D0F8C402C1EBC10100EB810002D590F890
:109910003E00704790F8FE01704710B5D0F8B822AD
:1099200022B190F89C32032B02D004E0032010BD3A
:10993000126A02B19047002010BD10B5D0F8B822CD
:1099400022B190F89C32032B02D004E0032010BD1A
:10995000526A02B19047002010BD10B51C46134654
:10996000D0F8C4022246FEF739FFBDE81040FFF7E9
:1099700017BF10B5D0F8C402FEF760FFBDE8104075
:10998000FFF70EBF70B50125044680F89C520020F9
:10999000C4F894026060C4F8A402D4F8B802E0B13C
:1099A000D4F8BC1221B1426812B100212046904780
:1099B0000022402311462046FFF7CFFF4026A4F89F
:1099C00064513346002280212046C4F86061FFF7CD
:1099D000C4FFA5840020266270BD032070BD90F8EE
:1099E0009C12042903D190F89D1280F89C1200204B
:1099F000704710B5D0F8B81221B190F89C22032A14
:109A000002D004E0032010BDC96901B188470020DD
:109A100010BD01740020704710B5D0F8C402FFF7E4
:109A2000CBF9BDE81040FFF7BBBE70B5044600F2AD
:109A3000AA20054600F044F80120C4F89402B4F8C6
:109A4000B002C4F8980294F8AA0210F01F010AD0DC
:109A500001290ED0022912D000F080012046BDE875
:109A6000704000F012B829462046BDE8704000F072
:109A7000A5B829462046BDE8704000F0C9B929467E
:109A80002046BDE8704000F023B910B5D0F8C402FC
:109A9000FEF7F8FEBDE81040FFF782BE90F89C127A
:109AA00080F89D12042180F89C120020704710B5A8
:109AB000D0F8C402FEF720FFBDE81040FFF770BEEB
:109AC00070B5054611F8010B2870087868704C1CB9
:109AD0002046FFF744FD6880A41C2046FFF73FFDA9
:109AE000A880A01CFFF73BFDE88070BD0246032064
:109AF000D2F8B832002B02D01B68104618477047C6
:109B00002DE9F0410F462C4E89780025044631702E
:109B1000012906D939462046FFF798FD0320BDE804
:109B2000F08194F89C0202280CD003281DD03946FD
:109B30002046FFF78BFD31782046FFF76FFD0325A8
:109B40002846ECE799B320466160FFF7CFFF050098
:109B500004D039462046FFF779FDF1E72046FFF7AC
:109B600098FD032084F89C02EAE74FF00208C1B197
:109B7000606888421BD0C1B22046FFF74FFD3178A4
:109B800020466160FFF7B2FF050010D0394620463D
:109B9000FFF75CFD21792046FFF740FD84F89C82A9
:109BA000CEE784F89C8220466160FFF737FD2046AF
:109BB000FFF76FFDC4E70000140000202DE9F0411D
:109BC0000A78002512F0600208D0202A01D0402A2D
:109BD00071D1D0F8B8229268904731E04B780022DA
:109BE00001260A2B67D2DFE803F0415E665866085B
:109BF00005662D29FFF758FD5FE004468888D8B92F
:109C0000C888C8B94888802816D200F07F0794F821
:109C10009C02032810D084F89E7239462046FFF734
:109C2000FBFE2046FFF735FD1FB1022084F89C02A1
:109C300043E084F89C6240E020463CE0FFF760FF90
:109C400005463AE0CB88012B35D190F89C32012BA8
:109C500004D0022B02D0032B2DD104E0826001221C
:109C600000F1080116E00122011D13E090F89C228A
:109C7000012A03D0022A01D0032A1CD1CA88022A51
:109C800019D1C660D0F8A41209B10321C160022223
:109C900000F10C01FFF7F0FC0FE0498801290CD11D
:109CA000C0F8A46211E090F89C32012B08D0022B7E
:109CB00006D0032B04D0FFF7C9FC2846BDE8F0818D
:109CC00049880129F9D1C0F8A422FFF7E2FCF4E7A2
:109CD0002DE9F0410D46044628780026097910F058
:109CE00060000BD0202801D040286DD1D4F8B802F4
:109CF0002946826820469047064686E06878A8B3E1
:109D0000012822D003287CD194F89C02022802D09A
:109D1000032876D10BE0002973D0802971D020462A
:109D2000FFF7B3FE80212046FFF7AFFE6DE06888A5
:109D300038B931B1802904D0E88810B92046FFF73E
:109D4000A4FE2046FFF7A5FC5FE094F89C020228E1
:109D5000E1D0032855D16888A8BB480602D0204628
:109D6000FFF72AFD2046FFF794FCBFE7FFE794F8D2
:109D70009C020027022802D0032842D111E009B139
:109D800080293ED1080601F07F0000EB800004EB43
:109D9000800101D5143101E001F5AA7102220F60A2
:109DA0002BE0080601F00F0000EB800004EB8000C0
:109DB0000BD5808C40B101F07F0000EB800004EBFC
:109DC000800514350CE020E01BE0B0F86401C0B160
:109DD00001F07F0000EB800004EB800505F5AA751B
:109DE00041B1802906D02046FFF787FD10B1012040
:109DF000286000E02F60022229462046FFF73CFC45
:109E000003E029462046FFF721FC3046BDE8F081FB
:109E100070B50646087800240D4610F0600003D0A7
:109E2000202801D0402817D196F89C02012803D0A1
:109E3000022801D003280FD1287901280CD8D6F8A0
:109E4000B8028268304690470446E888204306D12D
:109E50003046FFF71EFC02E03046FFF7F7FB2046D6
:109E600070BD000070B50A78012302F00F054E782E
:109E7000AB401B4CD0F81C58012E17D045EA0343C9
:109E8000C0F81C3800EB4210D0F8002B12040BD4A1
:109E9000D0F8002B0B89C978C3F30A031A4344EAAC
:109EA00081410A43C0F8002B002070BD9BB21D43C6
:109EB000C0F81C5800EB4210D0F800391B04F3D452
:109EC000D0F800390D89C978C5F30A0589042B43F8
:109ED00041EA82510B432343C0F80039E4E7000014
:109EE00000800010D0F800196FF30A01C0F80019C3
:109EF000D0F8041841F48071C0F8041800207047AD
:109F000070B50D784E78434CEBB200EB4313012E45
:109F10001FD0D3F8100B6FF31200C3F8100BD3F857
:109F2000100B2040C3F8100B486908B188684861DD
:109F3000D3F8100B40F40020C3F8100BD3F8100B2B
:109F40008C68C4F312042043C3F8100B012A55D0C7
:109F500058E04E69002ED3F8106932D06FF3120624
:109F6000C3F81069D3F810692640C3F810694E6928
:109F70008C68A64200D94C61D3F8104944F40024FF
:109F8000C3F81049D3F810494E69C6F3120634439A
:109F9000C3F81049012A22D000EB4512D2F800394B
:109FA00043F00443C2F800394A6932B3D0F8342888
:109FB000097801F00F03012199400A43C0F83428C1
:109FC00026E02640C3F81069D3F8104944F4002471
:109FD000C3F81049D3F810496FF31204D8E70969A0
:109FE00019B100EB4512C2F8141900EB4510D0F876
:109FF000001941F00441C0F8001909E0C86808B12F
:10A00000C3F8140BD3F8000B40F00440C3F8000B66
:10A01000002070BDFFFF07E010B5036C134CA34296
:10A0200003D9D0F8003B002B1EDB0023C0F8103B07
:10A03000D0F8103B43F40023C0F8103BD0F8103B9D
:10A0400043F01803C0F8103BD0F8103B43F0C04376
:10A05000C0F8103B012907D1C0F8142BD0F8001B21
:10A0600041F08021C0F8001B002010BD0A30544F81
:10A070004A780B78012A00EB43100BD0D0F8002B64
:10A0800022F40012C0F8002BC978032914D0022949
:10A0900012D017E0D0F8002922F40012C0F80029ED
:10A0A000C978032901D002290CD1D0F8001941F058
:10A0B0008051C0F8001905E0D0F8001B41F0805134
:10A0C000C0F8001B002070470A784B78D1B200EB33
:10A0D0004110012B12D0D0F8001B002906DB2AB159
:10A0E000D0F8001B21F08041C0F8001BD0F8001B05
:10A0F00041F40011C0F8001B00207047D0F800198F
:10A10000002906DB2AB1D0F8001921F08041C0F8FF
:10A110000019D0F8001941F40011C0F80019EBE75C
:10A12000F8B50C784F78774DE3B26FF0604600EBEE
:10A130004313012F26D0D3F8104B6FF31204C3F84A
:10A14000104BD3F8104B2C40C3F8104B4C69002C2B
:10A1500074D08D682C44641EB4FBF5F4D3F8105B06
:10A16000A4B206EAC4463543C3F8105BD3F8105BCB
:10A170008E686643C6F312042543C3F8105B012AB8
:10A1800071D0A6E04F691FB3D3F810796FF31207AF
:10A19000C3F81079D3F810792F40C3F810794F69BC
:10A1A0008D682F447F1EB7FBF5F506EAC545D3F849
:10A1B00010693543C3F81059D3F810594E69C6F3E6
:10A1C00012063543C3F81059CD78012D10D01BE08D
:10A1D000D3F810692E40C3F81069D3F8105945F42C
:10A1E0000025C3F81059D3F810596FF3120509E090
:10A1F000D3F8105925F0C045C3F81059D3F81059B9
:10A2000045F00055C3F81059012A18D000EB44134B
:10A21000D3F8004944F00444C3F80049CC78012C39
:10A220002FD04A6962B3D0F83428097801F00F03BF
:10A23000012199400A43C0F8342860E036E00A69F9
:10A240001AB100EB4413C3F81429C97801290FD1BE
:10A25000D0F80818C90500EB4411D1F8002903D43F
:10A2600042F0005202E030E042F08052C1F8002992
:10A2700000EB4410D0F8001941F00441C0F8001977
:10A280003DE0D0F80848E405D3F8004902D444F092
:10A29000005401E044F08054C3F8004900928A8AD7
:10A2A00093B20A78C96800F027F928E0D3F8104B78
:10A2B0008D68C5F312052C43C3F8104BD3F8104B2F
:10A2C00044F40024C3F8104B59E7CA680AB1C3F834
:10A2D000142BC97801290CD1D0F80808C005D3F88F
:10A2E000000B02D440F0005001E040F08050C3F871
:10A2F000000BD3F8000B40F00440C3F8000B002023
:10A30000F8BD0000FFFF07E008B500220092202200
:10A3100042EA811101610649009A521C00928A4268
:10A3200001D9032008BD02699206F5D4002008BDBA
:10A33000400D0300D0F8080810F0060004D00228F1
:10A3400003D0062801D00F207047022070474069D3
:10A3500000F001007047D0F81818D0F81C08084029
:10A3600080B27047D0F81818D0F81C080840000CCC
:10A37000704710B5D0F81038D0F8342801F00F0429
:10A3800000EB4110E24002F00102D0F8080943EA74
:10A39000C212104010BD00EB4111D1F8081BD0F8DB
:10A3A000140808407047416980690840704730B51B
:10A3B00003460846940802F00301002203F5805387
:10A3C00003E01D6840F8045B521CA242F9D3002947
:10A3D0000BD01C680022D50024FA05F3491E521C3C
:10A3E000090400F8013B090CF5D130BDD0F8002874
:10A3F00022F4FE62C0F80028D0F800284FF4FE6373
:10A4000003EA01110A43C0F8002800207047000049
:10A41000022A3ED1264A274B0A449A4201D20F21F2
:10A4200038E0254A254B0A449A4201D20E2131E0F8
:10A43000234A244B0A449A4201D20D212AE0224A9F
:10A44000224B0A449A4201D20C2123E0204A214B9C
:10A450000A449A4201D20B211CE01F4A1F4B0A44B6
:10A460009A4201D20A2115E01D4A1E4B0A449A4223
:10A470000FD31D4A1D4B0A449A4201D2082109E01C
:10A480001B4A11441B4A914201D2072102E00621D6
:10A4900000E00921C26822F47052C260C2684FF421
:10A4A000705303EA81210A43C26000207047000014
:10A4B000405327FF00350C00401E1BFF40420F0099
:10A4C00000DC0BFF804F1200808CF9FE20D61300B9
:10A4D00060B6E5FE60E3160000D3CEFE40771B00B9
:10A4E000C05BB3FEC091210000CA91FE2075380008
:10A4F000E05459FEE09C410010B5029C74B9DB1C8D
:10A500009C0800EB0230002300F5805004E000BFFF
:10A5100051F8042B02605B1CA342F9D3002010BD4C
:10A52000FEE70907090E002804DB00F1E02080F8AF
:10A530000014704700F00F0000F1E02080F8141DB7
:10A5400070470000014908607047000000000020CB
:10A550004FF47A71484300F001B8000070B54FF035
:10A56000E024002265690949A36909684843A16993
:10A570009942FCD002D2A3EB010302E0A5EB010655
:10A5800033441A440B468242F1D370BD00000020D0
:10A59000FEF756F8FEF7EAFFFEF7DEFEA820FFF70B
:10A5A000D1FF0B4D4FF47A764FF400743046FFF72D
:10A5B000CFFF012221462846FEF72EF83046FFF74E
:10A5C000C7FF002221462846FEF726F8EEE70000E6
:10A5D000001402404FF04070E1EE100A7047000096
:10A5E0000000000000000102030406070809000043
:10A5F00010A600080000002018000000C481000818
:10A6000028A6000818000020880E0000E08100083D
:10A610000000000001000000100000000000000029
:08A620000024F400000000001A
:0400000508008189E5
:00000001FF
